:020000040800F2
:100000005711002001010008671700085F1700085A
:1000100063170008ED0A00087140000800000000A6
:10002000000000000000000000000000211B00088C
:10003000CF13000800000000ED1700080D1C000899
:100040001B0100081B0100081B0100081B01000820
:100050001B0100081B010008D11300089D140008B3
:10006000D11400081B0100081B010008A51000089E
:100070001B0100081B0100081B0100081B010008F0
:100080001B0100081B0100081B0100081B010008E0
:100090007D3800081B0100081B0100081B01000837
:1000A0001B0100081B0100081B0100081B010008C0
:1000B0001B0100081B010008211D00081B0100088E
:1000C0001B0100081B0100081B0100081B010008A0
:1000D0001B0100081B0100081B0100081B01000890
:1000E0001B0100081B0100081B010008DFF80CD0F1
:1000F00000F014FC0048004795400008571100200C
:100100000648804706480047FEE7FEE7FEE7FEE7B1
:10011000FEE7FEE7FEE7FEE7FEE7FEE7C11C00089C
:10012000ED00000840EA01039B0703D009E008C97D
:10013000121F08C0042AFAD203E011F8013B00F8AC
:10014000013B521EF9D27047F0B480EA0102D40F8D
:100150004200B2EB410F02D20246084611464A0065
:1001600042D0C30DDDB2C1F3C752AD1A202D35DA2E
:10017000C1F3160141F4000204B15242C5F1200658
:1001800002FA06F12A411044B3EBD05F23D0C4B188
:10019000012DA0EBC35009DCF0BC4FF0004202EA95
:1001A000C352DBB200F5000000F02CBB400000F1B0
:1001B000807000EBC350A0F1807040EAD17049001C
:1001C00009E0490841EAC071A0EBC35000F5000006
:1001D000400800EBC350F0BC00F00BBB61420122B1
:1001E00002EB4101001BF6E7F0BC704781F00041D3
:1001F000AAE780F00040A7E780EA010210B502F00C
:100200000043400022D04A001FD0010E01EB1261D2
:10021000C0F35600C2F3560240F4000042F400025C
:10022000A0FB022000047F39140400D0401C50EAD7
:10023000124001D44000491EC2B20C0604EBD0109B
:10024000401C4008802A02D003E0002010BD20F0AE
:100250000100002900DA0020184310BD30B480EA04
:10026000010202F0004530F0004221F0004013D0BE
:1002700090B1C30DD40DC2F31601C0F31600E41AF9
:1002800041F4000140F400027D34914201D3641C2A
:1002900000E04900002C02DA30BC002070474FF427
:1002A00000000023914201D3891A034340084FEA1A
:1002B0004101F7D151B1914202D14FF0004105E027
:1002C00002D24FF0010101E06FF0010103EBC450D5
:1002D000284430BC00F08DBA2DE9FE4F804681EAFB
:1002E0000300C00F0C46009021F0004123F00045B0
:1002F000B8EB0200A94105D24046214690461C4673
:100300000B46024623F00040104347D0270DC7F3A9
:100310000A00C3F30A510290401A019040286BDA98
:10032000C3F3130040F4801B0098924620B10023D1
:10033000D2EB030A63EB0B0B01985946C0F1400264
:10034000504600F025FA06460D4650465946019A99
:1003500000F03DFA10EB08006141002487EA1152D9
:1003600084EAE7731A4340D0009A62B3019A012AE3
:100370004FEA075215DC001B61EB02014FF000420F
:1003800002EA0752CDE90042001C41F580113246D5
:100390002B4600F074FA03B0BDE8F08F40462146CA
:1003A000F9E7001B61EB0201001C41F58013001806
:1003B0005B412018A2F5001747EB030140EAD57016
:1003C000B6196D4111E06D084FEA360645EAC07571
:1003D0004FEA0752001B61EB0201001C41F580113E
:1003E00049084FEA30000019514132462B4603B00C
:1003F000BDE8F04F00F034BA00980122400000231D
:10040000D0EB020263EBE073009821464FEAE07400
:10041000B8EB000061EB0401E9E783F000435BE720
:1004200081F0004158E72DE9FE4F81EA030404F012
:10043000004421F0004100944FF0000B23F00043F2
:1004400050EA01045ED052EA03045BD0C3F30A54BD
:10045000C1F30A552C44A4F2F3340194A0FB0254D6
:10046000C1F3130141F48011C3F3130343F4801368
:1004700001FB024400FB034E840A970A44EA8154BC
:1004800047EA8357A4FB076802958D0A05FB078599
:100490004FEA932C04FB0C542705029D4FEA0658A3
:1004A00047EA1637B5EB08056EEB070C870E920E80
:1004B00047EA811742EA8312A7FB0201B6EB0B0160
:1004C00064EB00042B0D43EA0C335E1844EB1C5024
:1004D000DA465146E7FB0201C5F313044FEA0B333A
:1004E00043EA14534FEA0432019C43EA0603A4F1A1
:1004F0000C040294009CCDE900B400F0C0F903B0F4
:10050000BDE8F08F00200146F9E72DE9F04D81EAC2
:10051000030404F0004B21F0004514464FF0000A9C
:1005200023F0004150EA050220D054EA01021DD018
:10053000C5F30A570246C5F31303C1F31300C1F311
:100540000A5640F4801543F48013A7EB0608101BED
:10055000D64608F2FD3873EB050002D308F1010816
:1005600001E092185B41B8F1000F03DA0020014668
:10057000BDE8F08D00204FF48011064684460EE061
:10058000171B73EB050705D3121B63EB050306432B
:100590004CEA010C49084FEA300092185B4150EADE
:1005A0000107EDD152EA030012D082EA040083EA87
:1005B0000501084305D0101BAB4106D201220023E0
:1005C00006E000224FF0004302E06FF001025310FA
:1005D0001AEB06004CEB085110EB0A0041EB0B0143
:1005E000BDE8F04D00F03CB9C10F80EAE07008446E
:1005F000CA079623002100F005B996230022114670
:1006000000F000B90EB540F2334102910021CDE96E
:1006100000110A460B4600F032F903B000BD00F0AD
:10062000004220F00040C10DC0F3160040F400006D
:100630007F2901DA00207047962903DCC1F1960179
:10064000C84001E096398840002AF4D04042704703
:1006500020F00040C10DC0F3160040F400007F29D7
:1006600001DA00207047962903DCC1F19601C840E9
:100670007047963988407047C1F30A5210B5C1F3EC
:10068000130140F2FF3341F480119A4201DA002055
:1006900010BD40F233439A42A2F2334203DC52428D
:1006A00000F085F810BD904010BD00F0004230F021
:1006B00000400AD0C10D01F56071C0F3160042EA96
:1006C0000151C2084007114370470020014670479E
:1006D00030B5041E71F1000404DB4FF000444042C9
:1006E00064EB0101141E73F1000405DB1C464FF09E
:1006F0000043524263EB04038B4208BF824230BD89
:1007000030B5041E71F1000404DB4FF00044404298
:1007100064EB0101141E73F1000405DB1C464FF06D
:100720000043524263EB0403994208BF904230BD3C
:1007300001F0004330B421F0004150EA010206D03C
:100740000A0DA2F56072C1F31301002A02DC30BC6D
:1007500000207047440F44EAC104C100E01830BCD7
:1007600000EBC25000F045B8002801DBC0F10040AA
:10077000002901DBC1F1004181427047002801DB03
:10078000C0F10040002901DBC1F1004188427047FF
:10079000202A04DB203A00FA02F100207047914041
:1007A000C2F1200320FA03F3194390407047202A36
:1007B00004DB203A21FA02F00021704721FA02F30B
:1007C000D040C2F120029140084319467047202AC8
:1007D00006DBCB17203A41FA02F043EAE07306E069
:1007E00041FA02F3D040C2F1200291400843194679
:1007F00070470029A8BF7047401C490008BF20F07F
:100800000100704710B4B0FA80FC00FA0CF050EA16
:10081000010404BF10BC704749B1CCF1200421FA97
:1008200004F411FA0CF118BF012121430843A3EB92
:100830000C01CB1D4FEA00614FEA102042BF00209F
:1008400010BC704700EBC35010440029A4BF10BC7B
:100850007047401C490008BF20F0010010BC7047E1
:1008600010B5141E73F1000408DA401C41F10001B8
:1008700092185B411A4301D120F0010010BD2DE90F
:10088000F04D92469B4611B1B1FA81F202E0B0FA06
:1008900080F220329046FFF77BFF04460F4640EA85
:1008A0000A0041EA0B0153465A46084313D0114649
:1008B00053EA010019D0C8F140025046FFF777FF14
:1008C00005460E46504659464246FFF761FF08432B
:1008D00005D0012004E020463946BDE8F08D002017
:1008E000054346EAE0762C4337430A986305E40A59
:1008F000A0EB08000022FD0A44EA47540A3002D562
:1009000000200146E9E7010510196941DDE90845C4
:1009100000196941BDE8F04DA2E70000064C074D03
:1009200006E0E06840F0010394E8070098471034BF
:10093000AC42F6D3FFF7DEFBF8410008184200088E
:1009400021B1826842F00102826003E0826822F0F5
:1009500001028260704721B1826842F48072826035
:1009600003E0826822F480728260704701460020B2
:100970008A6802F004020AB1012000E000207047FA
:10098000014600208A6802F008020AB1012000E056
:100990000020704730B502460020002350680F4CFD
:1009A00020400D790C6844EA05242043506090688B
:1009B0000B4C2040D1E902542C434D7944EA4504C4
:1009C00020439060D06A20F470000C7C641EE4B276
:1009D000234340EA0350D06230BD0000FFFEF0FF29
:1009E000FDF7F1FFF0B504460D4600200021092D6A
:1009F00011DDE068A5F10A0606EB4607072606FAB0
:100A000007F18843A5F10A0606EB460603FA06F14C
:100A10000843E0600CE0206905EB4507072606FA6D
:100A200007F1884305EB450603FA06F10843206108
:100A3000072A0FDA606B561E06EB86071F2606FA9A
:100A400007F18843561E06EB860605FA06F10843B1
:100A5000606322E00D2A0FDA206BD61F06EB8607B3
:100A60001F2606FA07F18843D61F06EB860605FA0D
:100A700006F10843206310E0E06AA2F10D0606EBE0
:100A800086071F2606FA07F18843A2F10D0606EB3A
:100A9000860605FA06F10843E062F0BD816841F080
:100AA00008018160704721B1826842F4A00282602F
:100AB00003E0826822F4A00282607047816841F0FE
:100AC000040181607047000030B10749096841F4B2
:100AD0000001054A116005E00349096821F400019D
:100AE000014A1160704700000824014000BFFEE782
:100AF00010B504460B48844209D10121480600F094
:100B0000A3FE00214FF0007000F09EFE08E00121DE
:100B1000880600F099FE00214FF0806000F094FEFE
:100B200010BD00000064004010B50021837A01224E
:100B300002FA03F13D4A126842F001023B4B1A608F
:100B40003A4A1C3212688A43384B1C331A60027BC3
:100B5000CAB9364A0C3212688A43344B0C331A60D5
:100B60004288C38842EA0343304A4032847A42F8DA
:100B700034300288838842EA03432C4A4032847A24
:100B800002EBC4025360027B012A19D1274A0C32BE
:100B900012680A43254B0C331A604288038842EAE4
:100BA0000343224A4032847A42F83430C288838830
:100BB00042EA03431D4A4032847A02EBC402536086
:100BC000C27A3AB9194A121D12688A43174B1B1D83
:100BD0001A6006E0154A121D12680A43134B1B1DCA
:100BE0001A60028932B9114A143212688A430F4BD3
:100BF00014331A600289012A06D10C4A1432126891
:100C00000A430A4B14331A60427B012A06D1074A71
:100C10001C3212680A43054B1C331A60034A1268DF
:100C200022F00102014B1A6010BD00000066004076
:100C30001AB143690B43436102E043698B4343614B
:100C4000704730B5024600200023146824F00204E7
:100C50001460146844F00104146000E05B1C5468E4
:100C600004F001041CB94FF6FF74A342F6D1546896
:100C700004F001040CB900206CE08C79012C04D143
:100C8000146844F08004146003E0146824F08004C5
:100C90001460CC79012C04D1146844F04004146031
:100CA00003E0146824F0400414600C7A012C04D191
:100CB000146844F02004146003E0146824F0200455
:100CC00014604C7A012C04D1146844F010041460B0
:100CD00003E0146824F0100414608C7A012C04D111
:100CE000146844F00804146003E0146824F0080455
:100CF0001460CC7A012C04D1146844F0040414600C
:100D000003E0146824F0040414608C78A407CD7800
:100D100044EA05640D7944EA05444D7944EA0554F2
:100D20000D886D1E2C43D461146824F001041460F6
:100D3000002300E05B1C546804F001041CB14FF672
:100D4000FF74A342F6D1546804F001040CB10020F2
:100D500000E0012030BD10B500F5D87303EB01139E
:100D60001B6803F004031372137A53B900F5D873A8
:100D700003EB01131B6840F2FF7404EA5353136042
:100D800009E000F5D87303EB01131B686FF06044B2
:100D900004EAD303536000F5D87303EB01131B6817
:100DA00003F00203537200F5D87303EB01135B6881
:100DB00003F00F03937200F5D87303EB01135B6824
:100DC0001B0AD37400F5D87303EB01139B68D3722D
:100DD00000F5D87303EB01139B681C0A147300F52C
:100DE000D87303EB01139B681C0C547300F5D87384
:100DF00003EB01139B681B0E937300F5D87303EB91
:100E00000113DB68D37300F5D87303EB0113DB68C0
:100E10001C0A147400F5D87303EB0113DB681C0C77
:100E2000547400F5D87303EB0113DB681B0E937445
:100E300021B9C36843F02003C36003E0036943F0B2
:100E40002003036110BD00218171C17101724172E3
:100E50008172C1728170C1700321017102214171DF
:100E600001210180704710B502460020936803F00D
:100E70008063B3F1806F00D110E0936803F00063EA
:100E8000B3F1006F01D1012008E0936803F08053B3
:100E9000B3F1805F01D1022000E00420042874D067
:100EA00002F5C07303EB00131B6803F0010402F5A5
:100EB000C07303EB00131C600B7A7BB94B7A0C8870
:100EC00043EA445302F5C07404EB0014246823433E
:100ED00002F5C07404EB0014236010E00B7A4C6838
:100EE00043EAC4034C7A234302F5C07404EB0014B4
:100EF0002468234302F5C07404EB001423608B7A4A
:100F000003F00F038B7202F5C07303EB00135B68F1
:100F100023F00F0402F5C07303EB00135C6002F5CD
:100F2000C07303EB00135B688C7A234302F5C07433
:100F300004EB001463608B7B1C064B7B44EA034488
:100F40000B7B44EA0323CC7A234302F5C07404EB01
:100F50000014A3608B7C1C064B7C44EA03440B7C8E
:100F600044EA0323CC7B234302F5C07404EB001452
:100F7000E36002F5C07303EB00131B6843F0010448
:100F800002F5C07303EB00131C6010BD10B50246E0
:100F9000002321B1012907D002290FD109E090686F
:100FA0001D4C00EA04030BE090681C4C00EA0403AB
:100FB00006E090681A4C00EA040301E0002300BF39
:100FC00000BF184C181BA34216D007DC83B16FF08A
:100FD0008060184470B1022818D111E0B0F5007F8C
:100FE00010D0114C204448B1B0F5003F0ED10BE0B9
:100FF00002230DE000230BE0002309E0002307E0BB
:10100000012305E0012303E0012301E0002300BFE9
:1010100000BFD8B210BD00000300000400030008A8
:1010200000000310000100080001FFF710B504469E
:1010300000F03AFC4FF4803000F0F8FC00F054FD72
:101040001749087008460078012826D1102000F0C2
:10105000BDFA022000F0C8FA002000F0DBFC0020FE
:1010600000F016FD4FF4806000F006FD21464FF4BD
:10107000803000F01FFD012000F016FD00BF392078
:1010800000F0A2FC0028FAD0022000F021FD00BFF1
:1010900000F0B8FC0828FBD101E000BFFEE710BD5E
:1010A000000000202DE9F04F8BB0022000F052F933
:1010B00000286FD0002001F063FA8046FFF7A2FA03
:1010C000CDE90401032001F05BFA0190FFF79AFAE1
:1010D000804642460B4600203049FFF716FA0022B0
:1010E0002F4BCDE90201FFF710FA0646DDE9042394
:1010F000FFF799F92B4A2C4BCDE90601FFF790F940
:1011000004462A4A2A4BFFF700FA0022294BCDE970
:101110000801FFF7E1F88246FFF70AFB264908605D
:10112000012001F02DFA8346FFF767FA8246FFF7A8
:10113000BCFA80460022214BFFF775F906460022D3
:10114000174BFFF7E2F90446FFF7F2FA1C49086073
:10115000022001F015FA0890FFF74FFA0990FFF707
:10116000A4FA06460022174BFFF75DF904464FF03C
:101170006632154BFFF757F980464FF03332134B69
:10118000FFF7C3F98246FFF7D3FA1149086001203F
:1011900000F020F80BB0BDE8F08F00000032B34043
:1011A00000FEAF40E17A14AE47E1F63F22FDF6754E
:1011B000E09C713F00003940A400002000A0744072
:1011C000A800002000408F4066660A4033277C401C
:1011D000AC00002000F0805111B10349086001E02B
:1011E00002494860704700000404024000000240C9
:1011F00021B1026842F00102026004E002684FF689
:10120000FE731A400260704701684FF6FE7211408B
:1012100001600021016041608160C1604B498842EA
:1012200008D14A490839496841F00F01474A083A4C
:1012300051608AE045491431884208D14349083950
:10124000496841F0F001414A083A51607DE03F4968
:101250002831884208D13D490839496841F4706114
:101260003A4A083A516070E038493C31884208D126
:1012700036490839496841F47041344A083A5160A6
:1012800063E032495031884208D130490839496811
:1012900041F470212D4A083A516056E02B496431DF
:1012A000884208D129490839496841F47001274A20
:1012B000083A516049E025497831884208D12349EC
:1012C0000839496841F07061204A083A51603CE0B1
:1012D0001F49884206D1011F096841F00F01021F12
:1012E000116032E01A491431884208D11849091FA7
:1012F000096841F0F001164A121F116025E01449F7
:101300002831884208D11249091F096841F47061E7
:101310000F4A121F116018E00D493C31884208D174
:101320000B49091F096841F47041094A121F1160F5
:101330000BE007495031884207D10549091F096868
:1013400041F47021024A121F1160704708000240E8
:101350000804024001460020002201F0805313B12E
:10136000054B1A6801E0054B1A6802EA01030BB14C
:10137000012000E00020704700040240000002400D
:101380001AB103680B43036002E003688B430360F8
:10139000704710B50022026847F6F0739A430C6A52
:1013A0008B6823430C6923434C6923438C69234393
:1013B000CC6923434C6A23438C6A23431A4302605B
:1013C000CB6843600B6883604B68C36010BD704797
:1013D00010B5012000F09CF8002850D001F0B8FFB3
:1013E000032001F0F1FC18B1002001F0F9FE06E045
:1013F000042001F0E9FC10B1012001F0F1FE2048C9
:101400000078401C1E490870084600780C2833D12B
:10141000002008701B4800F04CFE401C1A49098847
:1014200001EB4102C2EBC11100EBC100174908609A
:101430001748006820B9084600681549086009E0A7
:1014400013490968114A1268881800EBD0714910D5
:101450000F4A11600E480068FFF7C6F8044621469F
:101460000C48FEF7FBFE0C49086000200649088086
:101470000021044800F082FF012000F043F810BD75
:1014800054000020000800404200002048000020D6
:101490004C000020C0E1644C5000002010B5022038
:1014A00000F036F898B101F053FF032001F08CFCF6
:1014B00018B1002001F094FE06E0042001F084FC45
:1014C00010B1012001F08CFE022000F01BF810BDCD
:1014D00010B5042000F01CF898B101F039FF03208A
:1014E00001F072FC18B1002001F07AFE06E0042041
:1014F00001F06AFC10B1012001F072FE042000F03E
:1015000001F810BD01490860704700001404014053
:10151000014600200022074B1B6803EA0102054B2D
:1015200014331B680B4013B10AB1012000E0002006
:101530007047000000040140002123498279002AFD
:101540003AD00A46126803689A430B461A600A1D8D
:10155000126803689A430B1D1A60027911440A68E5
:1015600003681A430A60184A0832126803689A43EB
:10157000154B08331A601A1D126803689A43124B00
:101580000C331A604279102A0ED11A1F12680368B0
:101590001A430D4B08331A601A1D126803681A4368
:1015A000094B0C331A600DE00749427911440A686F
:1015B00003681A430A6005E0027911440A68036867
:1015C0009A430A6070470000000401400549096819
:1015D00021F01001034A11601146096801431160AE
:1015E000704700000020024001460020034A1068B6
:1015F00000F03800084310607047000000200240EF
:1016000030B500228B071C0F0F2303FA04F20B4B9B
:101610008C1053F824309343084C8D1044F8253037
:1016200023468C1053F824308C07240F00FA04F45E
:101630002343024C8D1044F8253030BD0800014092
:101640002DE9F04102460025002600200023002459
:10165000002791F803C00CF00F0591F803C00CF0BF
:10166000100CBCF1000F03D091F802C04CEA050544
:1016700091F800C0BCF1000F31D0146800202BE0BD
:101680004FF0010C0CFA00F3B1F800C00CEA0306AD
:101690009E4220D183004FF00F0C0CFA03F7BC439D
:1016A00005FA03FC4CEA040491F803C0BCF1280FCE
:1016B00006D14FF0010C0CFA00FCC2F814C00AE08D
:1016C00091F803C0BCF1480F05D14FF0010C0CFAA2
:1016D00000FCC2F810C0401C0828D1D31460B1F837
:1016E00000C0BCF1FF0F34DD546800202EE000F193
:1016F000080C4FF0010808FA0CF3B1F800C00CEA2E
:1017000003069E4221D183004FF00F0C0CFA03F721
:10171000BC4305FA03FC4CEA040491F803C0BCF195
:10172000280F05D100F1080C08FA0CF8C2F8148053
:1017300091F803C0BCF1480F07D100F1080C4FF03D
:10174000010808FA0CF8C2F81080401C0828CED313
:101750005460BDE8F0810146886880B2704700BFE0
:10176000FEE700BFFEE7704770B5002100230F229F
:10177000C47804B3154C246804F4E064C4F5E06450
:10178000210AC1F10403CA40447804FA03F18478C1
:101790001440214309010E4C0678A155047804F049
:1017A0001F050124AC4005786D11AD0005F1E02561
:1017B000C5F8004109E0047804F01F050124AC409D
:1017C000044D0678761145F8264070BD0CED00E01A
:1017D00000E400E080E100E002490143024A1160B8
:1017E000704700000000FA050CED00E070470000B3
:1017F00001460020034A506820F4404008435060EE
:10180000704700000010024029B1064A52690243A5
:10181000044B5A6104E0034A52698243014B5A6106
:10182000704700000010024029B1064AD269024305
:10183000044BDA6104E0034AD2698243014BDA6166
:10184000704700000010024029B1064A12690243A5
:10185000044B1A6104E0034A12698243014B1A6186
:10186000704700000010024029B1064A9269024305
:10187000044B9A6104E0034A92698243014B9A61E6
:10188000704700000010024029B1064AD2680243A6
:10189000044BDA6004E0034AD2688243014BDA6009
:1018A00070470000001002400F48006840F001003F
:1018B0000D490860084640680C4908400A494860DC
:1018C000084600680A490840074908600846006859
:1018D00020F4802008600846406820F4FE0048603C
:1018E0004FF41F0088607047001002400000FFF8AE
:1018F000FFFFF6FE30B500210022002400232D4D0D
:101900006D6805F00C0121B1042905D0082923D107
:1019100005E0294D056022E0274D05601FE0254DBB
:101920006D6805F47012234D6D6805F4803402254E
:1019300005EB92421CB9214D554305600BE01D4D4E
:101940006D6805F400351DB11C4D5543056002E07E
:10195000194D5543056002E0174D056000BF00BFFB
:10196000144D6D6805F0F0010909154D6B5C0568B3
:10197000DD4045600F4D6D6805F4E061090A104DCA
:101980006B5C4568DD4085600A4D6D6805F460510B
:10199000C90A0B4D6B5C4568DD40C560054D6D683F
:1019A00005F44041890B074D6B5CC568B5FBF3F549
:1019B000056130BD0010024000127A0000093D00B0
:1019C000B0000020C000002010B501460022002316
:1019D00000204A11012A02D1094C236806E0022A9C
:1019E00002D1074C236A01E0054C636A01F01F0233
:1019F000012494401C400CB1012000E0002010BDE7
:101A0000001002400248406800F00C0070470000DF
:101A10000010024001460020034A506820F0F00008
:101A200008435060704700000010024011490968E7
:101A300021F480310F4A11601146096821F4802198
:101A40001160B0F5803F03D0B0F5802F0ED106E0D5
:101A50000849096841F48031064A116007E00549E8
:101A6000096841F4A021034A116000E000BF00BFF3
:101A7000704700000010024001460020034A5068F1
:101A800020F4E060084350607047000000100240FE
:101A900001460020034A506820F4605040EAC1002B
:101AA000506070470010024001490866704700000E
:101AB0000000424202460020044B586820F47C108B
:101AC00042EA01031843014B58607047001002407E
:101AD00001460020034A506820F00300084350608C
:101AE000704700000010024038B50020009000242C
:101AF000002500BF3120FFF767FF05460098401C16
:101B000000900098B0F5A06F01D0002DF2D03120E8
:101B1000FFF75AFF08B1012400E00024204638BD39
:101B2000704710B500F002F810BD00000CB50020A1
:101B3000019000903348006840F4803031490860DB
:101B400000BF3048006800F4003000900198401C4D
:101B50000190009818B90198B0F5A06FF1D129480B
:101B6000006800F4003010B10120009001E0002076
:101B700000900098012843D12348006840F01000ED
:101B8000214908600846006820F003000860084604
:101B9000006840F0020008601A484068194948602F
:101BA0000846406848600846406840F480604860E5
:101BB0000846406820F47C1048600846406840F4BD
:101BC000E81048600846006840F08070086000BF78
:101BD0000C48006800F000700028F9D009484068FF
:101BE00020F00300074948600846406840F00200C2
:101BF000486000BF0348406800F00C000828F9D195
:101C00000CBD0000001002400020024002480068A5
:101C1000401E0149086070470400002010B50021F3
:101C200000200022214B5B6803F00C0121B1042944
:101C300006D0082928D107E01D4B1E4C236027E061
:101C40001B4B1C4C236023E0184B5B6803F47010A3
:101C5000164B5B6803F48032022303EB904022B9F9
:101C6000154B4343134C23600DE0104B5B6803F4AA
:101C7000003323B1104B43430E4C236003E00C4B65
:101C800043430C4C236003E0094B0A4C236000BF24
:101C900000BF064B5B68C3F30313084CE15C054BC4
:101CA0001B68CB40034C236010BD000000100240B5
:101CB00000127A00C400002000093D00C800002086
:101CC00010B51348006840F001001149086008464B
:101CD0004068104908400E494860084600680E49AF
:101CE00008400B4908600846006820F4802008601E
:101CF0000846406820F4FE0048604FF41F008860EA
:101D0000FFF70FFF4FF000600449086010BD0000AE
:101D1000001002400000FFF8FFFFF6FE08ED00E0B3
:101D200010B50121384800F0D0F900286BD03748B1
:101D30000088401C3549088035480078012804D1C6
:101D400034480088401C33490880304800883228D5
:101D50000EDB00202D490880022000F08DFC044697
:101D60002D49FEF70BFD03D201F076F801F0D4FC0B
:101D700028480088B0F57A7F0DDB002025490880CF
:101D800001F022FC04460021FEF7EEFC03D001F036
:101D900041F801F0C1FC002001F016F838B901202B
:101DA00001F012F818B9022001F00EF820B11B481A
:101DB0000088401C19490880012001F005F818B975
:101DC000022001F001F8D0B115480078401C1449F8
:101DD0000870084600780A2811D1032000F0F4FFAB
:101DE00018B1002000F05EFC06E0042000F0ECFFDB
:101DF00010B1012000F056FC0020094908700121B3
:101E0000014800F040F810BD0008004044000020E8
:101E1000560000204600002000606A464200002074
:101E2000550000200A884B881A438B881A43CB88B8
:101E30001A430B891A434B891A438B891A43A0F81A
:101E40004420704730B5002301248C40A3B2048C99
:101E50009C430484048C02FA01F5ADB22C43048443
:101E600030BD30B5002304248C40A3B2048C9C43C5
:101E70000484048C02FA01F5ADB22C43048430BD15
:101E8000CA4302827047CA430282704721B1028866
:101E900042F00102028004E002884FF6FE731A400D
:101EA0000280704731B1B0F8442042F40042A0F8FB
:101EB000442005E0B0F84420C2F30E02A0F844200C
:101EC0007047000010B504466848844208D10121DB
:101ED000C014FFF7D9FC0021E014FFF7D5FCC4E0E3
:101EE000B4F1804F08D101210846FFF7ADFC002175
:101EF0000120FFF7A9FCB8E05D48844208D1012128
:101F00000220FFF7A1FC00210220FFF79DFCACE0BE
:101F10005848844208D101210420FFF795FC002194
:101F20000420FFF791FCA0E05348844208D101212E
:101F30000820FFF789FC00210820FFF785FC94E0CA
:101F40004E48844208D101211020FFF77DFC00217A
:101F50001020FFF779FC88E04948844208D101212C
:101F60002020FFF771FC00212020FFF76DFC7CE0B2
:101F70004448844208D101214014FFF785FC002128
:101F80006014FFF781FC70E03F48844209D10121D1
:101F9000C804FFF779FC00214FF40020FFF774FC20
:101FA00063E03A48844209D101210805FFF76CFC3F
:101FB00000214FF48010FFF767FC56E0344884425C
:101FC00009D101214805FFF75FFC00214FF4001003
:101FD000FFF75AFC49E02F48844208D101214020F4
:101FE000FFF732FC00214020FFF72EFC3DE02A489D
:101FF000844208D101218020FFF726FC00218020A7
:10200000FFF722FC31E02548844208D101218015E8
:10201000FFF71AFC0021A015FFF716FC25E0204869
:10202000844209D101210804FFF72EFC00214FF45E
:102030008030FFF729FC18E01A48844209D10121B9
:102040004804FFF721FC00214FF40030FFF71CFC8F
:102050000BE01548844208D101218804FFF714FCE5
:1020600000214FF48020FFF70FFC10BD002C014031
:102070000004004000080040000C00400010004038
:102080000014004000340140004C01400050014069
:102090000054014000180040001C00400020004097
:1020A0000040014000440140004801400146888E44
:1020B00070470146888C704702460020138A0B4007
:1020C0000BB1012000E00020704730B5024600202F
:1020D00000230024158A05EA0103958905EA010415
:1020E00013B10CB1012000E0002030BD1AB183898A
:1020F0000B43838102E083898B4383817047000017
:1021000070B5002400220023058C4FF6FE76354082
:102110000584028C8388048B4FF68F752C40B51E86
:102120002C400D882C43751E2A400D892A434D886A
:102130002A43144DA8420BD0134DA84208D0134D8A
:10214000A84205D0124DA84202D0124DA84213D188
:102150004FF6F7752A404D892A434FF6FB752A4002
:102160008D882A434FF6FF652B404FF6FF552B40D5
:102170008D892B43CD892B4383800483CD8885862D
:10218000028470BD002C0140003401400040014039
:1021900000440140004801400A460021018B4FF6EF
:1021A000F7731940114301837047000070B5002494
:1021B00000220023058C4FF6EF7635400584028C13
:1021C0008388048B48F6FF752C404FF6FF452C4062
:1021D0000D884FF6FF7606EA05252C434FF6DF758E
:1021E0002A400D8906EA05152A434D8806EA051599
:1021F0002A43154DA84202D0144DA8421DD14FF6D6
:102200007F752A404D894FF6FF7606EA05152A4369
:102210004FF6BF752A408D8806EA05152A434FF60A
:10222000FF352B404FF2FF752B408D8906EA85055F
:102230002B43CD8906EA85052B4383800483CD8813
:102240000587028470BD0000002C0140003401406D
:102250000A460021018B4FF2FF7319404FF6FF73BE
:1022600003EA0223194301837047000070B500247C
:1022700000220023058C4FF6FF6635400584028C52
:102280008388848B4FF68F752C404FF6FC752C405D
:102290000D882C434FF6FF552A400D894FF6FF76E7
:1022A00006EA05252A434D8806EA05252A43154DE9
:1022B000A84202D0144DA8421DD14FF2FF752A400A
:1022C0004D894FF6FF7606EA05252A434FF6FF357E
:1022D0002A408D8806EA05252A434EF6FF752B40D5
:1022E0004DF6FF752B408D8906EA05152B43CD89E8
:1022F00006EA05152B4383808483CD888587028475
:1023000070BD0000002C0140003401400A4600214D
:10231000818B4FF6F773194011438183704770B575
:102320000346002000241846183001258D40ACB229
:102330001D8CA5431D8409B1082909D100EB61005A
:10234000056825F0700505600568154305600EE019
:102350000D1FC5F34E052844056825F4E0450560CA
:1023600005684FF6FF7606EA02263543056070BD24
:1023700081867047018770478187704781847047E5
:10238000002202881D4B98420ED01D4B98420BD064
:10239000B0F1804F08D01B4B984205D01A4B9842A1
:1023A00002D01A4B984204D14FF68F731A404B88D3
:1023B0001A43174B984207D0164B984204D04FF659
:1023C000FF431A40CB881A4302808B8883850B8891
:1023D00003850A4B98420BD0094B984208D00E4B0C
:1023E000984205D00D4B984202D00D4B984201D136
:1023F0000B7A03860123838270470000002C014082
:10240000003401400004004000080040000C00407F
:102410000010004000140040004001400044014012
:102420000048014000B591B04FF48040FFF7E0F95B
:1024300001210846FFF7E8F901214802FFF714FAE5
:1024400000200C9001208DF834008DF835004FF4F9
:1024500060200E9000200F9004208DF840000CA901
:102460003948FEF797FA0423012210213648FEF777
:10247000B9FA04231A4611213348FEF7B3FA0423AC
:10248000022205213048FEF7ADFA04230322194643
:102490002D48FEF7A7FA2D48FEF7B6FE2A484C3025
:1024A00001902B48029000200390142004900020FB
:1024B0000590802006904000079080000890202022
:1024C000099000020A9000200B9001A91F48FEF716
:1024D00060FF012202211D48FEF752FF0B208DF8FC
:1024E000000001208DF8030000208DF8010002207B
:1024F0008DF802006846FFF737F90120FEF7E4FA8D
:1025000001211148FEF71CFA01211048FEF770FE68
:1025100001210D48FEF71FFA0B48FEF7BFFA00BF76
:102520000948FEF72DFA0028FAD10748FEF7C6FA47
:1025300000BF0548FEF71AFA0028FAD10121024827
:10254000FEF7B1FA11B000BD0024014008000240BE
:102550002401002008B501210420FFF785F900209F
:102560008DF803003020ADF8000003208DF8020044
:1025700069460248FFF764F808BD00000008014002
:1025800001460E4830F811200346081D33F81000AC
:10259000024401F1080033F81000024401F10C007C
:1025A00033F81000024401F1100033F81000104419
:1025B000052290FBF2F080B2704700002401002059
:1025C0000246002022B1012A1BD0022A4BD131E061
:1025D000012902D1254B187812E0022904D1234B9E
:1025E0001B88C3F307200BE0032904D11F4B1B6892
:1025F000C3F3074004E0042902D11C4B1B68180EEA
:1026000031E0012902D11A4B187812E0022904D1D5
:10261000174B1B88C3F307200BE0032904D1144B8D
:102620001B68C3F3074004E0042902D1104B1B6868
:10263000180E18E0012902D10E4B187812E0022979
:1026400004D10C4B1B88C3F307200BE0032904D1F2
:10265000084B1B68C3F3074004E0042902D1054B73
:102660001B68180E00BF00BF70470000A4000020C8
:10267000A8000020AC0000200146002011B9064A45
:10268000106808E0012902D1044A106803E0022919
:1026900001D1034A10687047A4000020A800002060
:1026A000AC0000202DE9F0410446002000F08CFB36
:1026B00020BB012000F088FB18B1204600F094F9FF
:1026C00006E0022000F080FB10B1204600F01CF86C
:1026D00000210B480068FEF747F80FD100F074FFA7
:1026E0000746FDF7E2FF05460022064BFDF7F0FF27
:1026F00004D201F011F8002000F0B2FFBDE8F08133
:1027000090000020000014402DE9F14FA6B03C22BB
:102710009C4904A8FDF706FD0020039000F0FEFC94
:102720000290994801680298FDF763FD9749086097
:102730009748016895480068FDF758FD0290FDF73D
:102740006EFF2590914800689149086091498F4833
:102750000068FDF751FD01908F4801680198FDF771
:102760007DFD0290FDF75BFF24906421259848438E
:102770000A2190FBF1F00090FDF736FF01908648AA
:1027800041680198FDF76AFD0290FDF748FF23902C
:102790002498642802DD6420249006E0249810F137
:1027A000640F02DA6FF0630024902398642802DD3E
:1027B0006420239006E0239810F1640F02DA6FF092
:1027C000630023906FF013006FF031035A00510043
:1027D0000090249800F0FCFB804600206FF013036B
:1027E0001A466FF031010090249800F0F1FB814609
:1027F000142000231A4641420090249800F0E8FB80
:102800008246322014231A4600210090249800F0BA
:10281000DFFB8346C82064233222142100902498D1
:1028200000F0D6FB229000206FF01D036FF06302D2
:1028300051000090239800F0CBFB05461E2000239A
:102840001A4641420090239800F0C2FB0646C82079
:1028500064231E2200210090239800F0B9FB044657
:10286000A84501DA404600E028461390B04501DA59
:10287000404600E030461490A04501DA404600E0B2
:1028800020461590A94501DA484600E028461690F2
:10289000B14501DA484600E030461790A14501DA1B
:1028A000484600E020461890AA4501DA504600E06C
:1028B00028461990B24501DA504600E030461A9099
:1028C000A24501DA504600E020461B90AB4501DAF4
:1028D000584600E028461C90B34501DA584600E00F
:1028E00030461D90A34501DA584600E020461E9070
:1028F0002298A84201DA229800E028461F902298E8
:10290000B04201DA229800E0304620902298A0429E
:1029100001DA229800E02046219000270AE004A86E
:1029200050F8271013A850F82720039801FB020045
:1029300003907F1C0F2FF2DB039901EB810148000C
:10294000FDF752FE0190144881680198FDF754FC90
:102950000290FDF764FE1149096808440F490860B8
:1029600008460068002802DC0020086006E026987F
:1029700000F036FC0948006800F072FE27B0BDE8A0
:10298000F08F0000BC41000890000020940000205F
:10299000980000200000C8420C010020A000002088
:1029A00001460F4A12680F4B1A600020012902D11C
:1029B0001A46107812E0022904D10A4A1288C2F39A
:1029C00007200BE0032904D1064A1268C2F307402E
:1029D00004E0042902D1034A1268100E7047000077
:1029E000900000208C0000202DE9F14F82B000F013
:1029F00095FB0446474801682046FDF7FAFB464927
:102A000008604649086844490968FDF7F5FB4449F0
:102A100008604249486840490968FDF7EDFB0190AC
:102A2000FDF743FE80463F4A3F4BFDF7FCFC044662
:102A30000D463B494868FDF738FE064622462B46C0
:102A4000FDF74AFC8246FDF773FE3549486037487A
:102A5000016831480068FDF7C9FB81462F4881684D
:102A60004846FDF7C9FB0446FDF71FFE07462D4A01
:102A70002D4BFDF74AFD0546FDF75AFE28498860B3
:102A80004868FDF712FE04460022294BFDF720FEA0
:102A900003D22848224948600CE021494868FDF7E4
:102AA00004FE04460022244BFDF72AFE02D22348EE
:102AB0001B4948601A4A51681068FDF745FB0546F6
:102AC000174881682846FDF73FFB0446FDF7A7FD40
:102AD0001B49096808441A4908600F4800681349EF
:102AE000086017480068512803DA00200C49486044
:102AF00007E013480068B0F5486F02DD0020084980
:102B00004860029800F06CFB0D48006800F0A8FDDA
:102B1000BDE8FE8F900000209400002000010020FE
:102B2000180100207B14AE47E17A843F9800002012
:102B3000000074C00000A0C3000074400000A04367
:102B4000A00000202DE9F04704460D4616461F461A
:102B5000DDF820802348006865F3070021490860FC
:102B60000846006866F30F2008600846006867F3AF
:102B7000174008600846006868F31F600860072C6B
:102B80002CD2DFE804F004090E13181D22001548AA
:102B900000681549086021E0124800681249486041
:102BA0001CE0104800681049886017E00D48006874
:102BB0000E49086012E00B4800680C4948600DE0BF
:102BC000084800680949886008E006490868FDF778
:102BD00026FD8146FDF708FD0549086000BFBDE8F8
:102BE000F08700008C000020000100200C01002074
:102BF00090000020F0B589B00020544948708870DA
:102C0000C87001214806FEF70FFE5148FDF770FF1E
:102C100006A8FEF718F900208DF81E008DF81F0099
:102C20008DF820008DF821008DF8220001208DF80C
:102C3000230000208DF81A008DF81B0002208DF86B
:102C40001C0001208DF81D000620ADF8180006A913
:102C50003F48FDF7F6FF01208DF812008DF81300B4
:102C600000208DF814003B4800684FF6FF7101EA20
:102C70004010ADF808003748006801EA4010ADF890
:102C80000A003448006801EA4010ADF80C003148F1
:102C9000006801EA4010ADF80E000020ADF8100009
:102CA00001208DF8150002A8FDF73EFF0020024626
:102CB00003460146C1F10707042F01D9042701E0AB
:102CC000C1F107073E460F1D072F01D2002700E084
:102CD000CF1E3D460127B7407F1E1740AF404FF043
:102CE000010C0CFA05FCACF1010C0CEA030C47EAF0
:102CF0000C07BCB214202146002807DA0A07150E7B
:102D0000154A00F00F031B1FD55403E00A07130EEA
:102D1000124A135400BF4FF4C060FEF75DFD14204B
:102D20008DF8040000208DF8050005208DF80600C0
:102D300001208DF8070001A8FEF716FD01220221EF
:102D40000348FDF775FF09B0F0BD000085000020C5
:102D5000006400406400002018ED00E000E400E0A2
:102D600002460020002103E0535C0344D8B2491C12
:102D70000729F9DBC143C8B2411CC8B27047000043
:102D800008B501210520FEF76FFD48208DF80300EE
:102D90004FF40060ADF8000003208DF80200694692
:102DA0000848FEF74DFC18208DF803004FF48050C2
:102DB000ADF8000003208DF8020069460148FEF7D7
:102DC0003FFC08BD000801400146002011B90B4A34
:102DD000507812E0012902D1084A90780DE00229CA
:102DE00002D1064AD07808E0032902D1034A1079BB
:102DF00003E0042901D1014A507970478500002081
:102E0000002003494870C870887008714871704785
:102E10008500002010B545200C49087052204870EC
:102E200088705320C870542008714920487143208D
:102E300088710846FFF794FF0449C8710B460822C1
:102E400003480168034800F029F810BD7C00002009
:102E50005C0000200064004010B545200C4908705B
:102E60005220487088704920C8704D2008714F204A
:102E70004871542088710846FFF772FF0449C871F1
:102E80000B46082203480168034800F007F810BD0C
:102E90007C0000205C000020006400402DE9F04729
:102EA00086B08246884614469946CDF804800020B4
:102EB00002908DF80D008DF80C00E0B28DF80E0038
:102EC000002005E019F800200DF10F010A54401C04
:102ED000A042F7DB01A95046FDF7C5FF05460027D4
:102EE00005E029465046FEF751F806467F1C012EA4
:102EF00003D04FF6FF708742F3D106B0BDE8F087EC
:102F000010B50948FEF7DEFF01210220FEF78CFC18
:102F10004FF6FF700549888000200880C8804880EF
:102F20000148FFF72DFA10BD000400404C010020BD
:102F300070B5044623201049088040F2E7308880AD
:102F40000E48FFF71DFA002513E001210B48FEF79C
:102F500097FF01210948FEF799FF00BF01210748AB
:102F6000FFF7AAF80028F9D000210448FEF78EFFE9
:102F70006D1CA542E9D370BD4C0100200004004047
:102F800070B50446112010490880012088800F4840
:102F9000FFF7F6F9002513E001210C48FEF770FF5A
:102FA00001210A48FEF772FF00BF01210748FFF721
:102FB00083F80028F9D000210448FEF767FF6D1C54
:102FC000A542E9D370BD00004C0100200004004080
:102FD000F0B50446059D8C4201DA002016E09442CB
:102FE00006DA661A64277E43571A96FBF7F00DE05F
:102FF0009C4201DA642009E0AC4206DA2E1B642709
:103000007E43EF1A96FBF7F000E00020F0BD0000D1
:103010001FB501210820FEF727FC48208DF80F007E
:103020000720ADF80C0003208DF80E0003A93948E5
:10303000FEF706FB01210846FEF716FC00210120E1
:10304000FEF7DEFA0120019000208DF80800102024
:103050008DF8090001208DF80A0001A8FEF76CFA2E
:1030600006208DF8000000208DF8010002208DF868
:10307000020001208DF803006846FEF775FB012170
:103080000846FEF7BDFA0220019000208DF80800E6
:1030900010208DF8090001208DF80A0001A8FEF724
:1030A0004BFA07208DF8000000208DF80100032066
:1030B0008DF8020001208DF803006846FEF754FBEE
:1030C00002210120FEF79CFA0420019000208DF8D7
:1030D000080010208DF8090001208DF80A0001A8D1
:1030E000FEF72AFA08208DF8000000208DF8010074
:1030F00004208DF8020001208DF803006846FEF7D9
:1031000033FB0448FEF727FB00F007000249088064
:103110001FBD0000000C01403E00002010B54FF024
:103120007E5104480068FDF799F803490860084695
:10313000006810BD5000002058000020014600200B
:10314000012902D10B4A107812E0022904D1094A60
:103150001288C2F307200BE0032904D1054A126844
:10316000C2F3074004E0042902D1024A1268100E9B
:1031700070470000580000200148007870470000A8
:103180003800002001488078704700003800002097
:10319000014800797047000038000020014840785D
:1031A00070470000380000200148C07870470000D8
:1031B00038000020014840797047000038000020A6
:1031C00000B50246012A02D10449087004E000203B
:1031D0000249087000F0BCF800BD00005600002055
:1031E00010B504464848FEF7B6FA00F00700474914
:1031F0000880084600884649098888427ED04348AE
:10320000008843490880DCBB4048008800EB400050
:10321000404911F81000404908703C48008800EB14
:1032200040003C4901EB400040783B49487037483A
:10323000008800EB4000374901EB400080783649B8
:1032400088703248008800EB4000324901EB4000B2
:10325000C0783149C8702D48008800EB40002D49E6
:1032600001EB400000792C4908712848008800EBE8
:103270004000284901EB40004079274948713FE070
:10328000FFE7012C3CD12148008800EB4000234996
:1032900011F81000204908701C48008800EB40001D
:1032A0001E4901EB400040781B49487017480088D0
:1032B00000EB4000194901EB400080781649887006
:1032C0001248008800EB4000144901EB4000C07830
:1032D0001149C8700D48008800EB40000F4901EB10
:1032E000400000790C4908710848008800EB400054
:1032F0000A4901EB40004079074900E002E04871CB
:1033000000F05CF810BD0000000C01403E00002001
:10331000400000205C410008380000208C4100087B
:1033200000200649087006490860064908604FF603
:10333000FF70054908800549088070475500002046
:1033400050000020580000203E00002040000020D7
:103350000020014908807047460000201FB5012168
:103360000420FEF761FA4720ADF8040040F2E73090
:10337000ADF808000020ADF80A00ADF8060001A97C
:103380000D48FEF7FDFF012211460B48FEF7AEFE89
:1033900000210948FEF77AFD1E208DF8000000206C
:1033A0008DF8010001208DF802008DF803006846B9
:1033B000FEF7DAF91FBD00000008004010B5FFF766
:1033C000DBFE78B1602200213E48FEF7A8FF012213
:1033D00000213C48FEF736FD042200213948FEF763
:1033E00040FD17E0002211463648FEF72BFDFFF79F
:1033F000D5FE50B1502200213248FEF790FF042242
:1034000000213048FEF72DFD04E0002211462D4832
:10341000FEF727FDFFF7B6FE78B1602204212948A8
:10342000FEF77DFF012204212648FEF70BFD042252
:1034300011462448FEF715FD17E00022042121481B
:10344000FEF700FDFFF7B0FE50B1502204211D48E9
:10345000FEF765FF042211461A48FEF702FD04E05C
:10346000002204211748FEF7FCFCFFF791FE78B11B
:10347000602208211348FEF752FF0122082111485B
:10348000FEF7E0FC042208210E48FEF7EAFC17E0F4
:10349000002208210B48FEF7D5FCFFF78BFE50B148
:1034A000502208210748FEF73AFF04220821054868
:1034B000FEF7D7FC04E0002208210248FEF7D1FC09
:1034C00010BD0000002C014008B501210420FEF7CA
:1034D000CBF918208DF803004FF4E060ADF8000040
:1034E00003208DF8020069461148FEF7A9F8012172
:1034F0000820FEF7B9F918208DF803004FF460405A
:10350000ADF8000003208DF8020069460948FEF777
:1035100097F804208DF803008002ADF80000032026
:103520008DF8020069460348FEF78AF808BD0000DE
:1035300000080140000C01402DE9FC5F82461E4856
:10354000FEF7B4FD0090FDF758F88346FDF7ADF89F
:1035500006460022194BFCF766FF04460022184B72
:10356000FCF7D3FF8046FDF7E3F81649086000201A
:103570000190BAF1010F03D108460078019018E0DC
:10358000BAF1020F05D10F480088C0F3072001905F
:103590000FE0BAF1030F05D10A480068C0F30740F5
:1035A000019006E0BAF1040F03D106480068000E4E
:1035B00001900198BDE8FC9F002C0140000059409B
:1035C0000000A940340000202DE9F05F0D48FEF70F
:1035D0006DFD8346FDF711F88246FDF766F8064655
:1035E0000022094BFCF71FFF04460022074BFCF7A3
:1035F0008CFF8046FDF79CF8054908600846006886
:10360000BDE8F09F002C0140000059400000A94097
:10361000340000202DE9F04104460D4616461F46B1
:103620000E48006864F307000C490860084600680B
:1036300065F30F2008600846006866F317400860CD
:103640000846006867F31F6008600868FDF700F827
:10365000804600F005F8BDE8F08100003000002051
:103660002DE9F05F81464846FCF7C7FF83462749AE
:10367000FCF7C2FD8246FDF718F807460022244BEE
:10368000FCF743FF0546FCF7F7FF84B2512C12DB31
:10369000B4F5486F0FDC21461E48FEF769FE21464F
:1036A0001C48FEF767FE21461A48FEF765FE01201A
:1036B000FFF786FD28E0B4F5486F12DD4FF448614E
:1036C0001448FEF755FE4FF448611248FEF752FECB
:1036D0004FF448610F48FEF74FFE0120FFF770FDE1
:1036E00012E0512C10DA0020FFF76AFD0021094892
:1036F000FEF73EFE00210748FEF73CFE002105488C
:10370000FEF73AFE00F008F8BDE8F09F00004845DB
:1037100000005940002C014010B500211448FEF76C
:10372000B5FB00211248FEF729FEFFF769FB0022D6
:1037300011461048FEF786FB002211460D48FEF7A1
:1037400090FB002204210B48FEF77CFB00220421A1
:103750000848FEF786FB002208210648FEF772FBA8
:10376000002208210348FEF77CFBFFF7D9FD10BDBE
:1037700000080040002C014000B58BB0012140F64C
:103780000100FEF771F83948006844F62061B0FB8B
:10379000F1F0401E36490880002036490860ADF837
:1037A0002000ADF8220032480088ADF82400002047
:1037B000ADF826008DF8280008A92F48FEF7E0FD97
:1037C0000020ADF810000120ADF812000420ADF883
:1037D000140028490868FCF73BFF80B2ADF81600DA
:1037E0000020ADF81800ADF81A00ADF81C00ADF8D7
:1037F0001E0004A92048FEF783FC04A91E48FEF71A
:10380000D5FC04A91C48FEF731FD08211A48FEF733
:10381000C3FC08211848FEF71BFD08211648FEF7D7
:1038200075FD4FF40060ADF800004010ADF80200E7
:103830000020ADF804009620ADF806000020ADF899
:1038400008004FF40050ADF80A004000ADF80C003D
:1038500069460948FEF7E6FA01210748FEF716FB1C
:1038600001210548FEF71EFB0BB000BDC40000207F
:103870002C00002030000020002C014038B500242E
:10388000FE4A0021FE48FDF766FAFC480B30FFF7C0
:1038900067FAFC490870F9480068FB4909688842E2
:1038A0007ED1F648007A0028FAD1F448807A0828B8
:1038B000F6D1F2480B30FFF753FAF049897C884281
:1038C000EED100BF06E0ED480B30005DEF49085532
:1038D000601CC4B2082CF6DBE848C07A43280FD13C
:1038E000E648007B41280BD1E448407B4E2807D1B5
:1038F000E248807B4F2803D10120E549087012E09F
:10390000DE48C07A43280ED1DC48007B41280AD12A
:10391000DA48407B4E2806D1D848807B432802D124
:103920000020DB490870DA480078002838D0D348F6
:10393000C07A4F2825D1D148007B4C2821D1CF48CF
:10394000407B52281DD10120D149087100204871C7
:1039500008468078A8B90846C07890B90120487018
:103960000020C87088700121CA48FEF78FFA002035
:10397000FFF736FCC14DAB7BEA7B297C687CFFF707
:1039800049FEBE48C07A4F2827D1BC48007B4C284E
:1039900023D1BA48407B4C281FD10020BC4900E00D
:1039A000BEE108710120487108468078A8B9084630
:1039B000C07890B9012048700020C870887001213B
:1039C000B448FEF763FA0120FFF70AFCAB4DAB7B6E
:1039D000EA7B297C687CFFF71DFEA848C07A432853
:1039E00022D1A648007B50281ED1A448407B5228F3
:1039F0001AD10120A6490871002048710846407874
:103A000090B90846C07878B9012088700121A14892
:103A1000FEF73CFA9948807B00909848C37B027C73
:103A2000417C0620FFF78EF89448C07A432822D1C3
:103A30009248007B46281ED19048407B52281AD1DC
:103A4000012093490871002048710846407890B9D8
:103A50000846807878B90120C87001218D48FEF7AA
:103A600015FA8648807B00908448C37B027C417CA9
:103A70000620FFF767F88148C07A432822D17F48A3
:103A8000007B50281ED17D48407B4C281AD1002055
:103A90007F490871012048710846407890B908466E
:103AA000C07878B90120887001217A48FEF7EEF9D4
:103AB0007248807B00907148C37B027C417C062069
:103AC000FFF740F86D48C07A432822D16B48007B4D
:103AD00046281ED16948407B4C281AD100206C49E9
:103AE0000871012048710846407890B908468078EE
:103AF00078B90120C87001216648FEF7C7F95F4810
:103B0000807B00905D48C37B027C417C0620FFF7F0
:103B100019F85A48C07A472811D15848007B4B28D9
:103B20000DD15648407B502809D15448807B0090E5
:103B30005248C37B027C417C0020FFF703F84F48CA
:103B4000C07A472811D14D48007B4B280DD14B48F6
:103B5000407B492809D14948807B00904748C37B76
:103B6000027C417C0120FEF7EDFF4448C07A4728E3
:103B700011D14248007B4B280DD14048407B44285E
:103B800009D13E48807B00903C48C37B027C417C4D
:103B90000220FEF7D7FF3948C07A472811D13748AD
:103BA000007B47280DD13548407B452809D1334853
:103BB000807B00903148C37B027C417C0320FEF770
:103BC000C1FF2E48C07A472811D12C48007B4428D9
:103BD0000DD12A48407B452809D12848807B009098
:103BE0002648C37B027C417C0420FEF7ABFF2348C0
:103BF000C07A472811D12148007B44280DD11F48A5
:103C0000407B552809D11D48807B00901B48C37B11
:103C1000027C417C0520FEF795FF1848C07A5228A7
:103C20007ED11648007B4528FAD11448407B5128A4
:103C3000F6D11248407C0A28F2D11048807B4128F6
:103C40006FD10E48C07B4C28FAD10C48007C4C2820
:103C5000F6D1FFF763FA52200F49087050204870E0
:103C6000562088700120FFF769FA0B49C8700220BE
:103C7000FFF764FA0849087103200FE0EC00002008
:103C800000640040840000206400002074000020D4
:103C900085000020000800407C000020FFF74EFA5D
:103CA000EF4948710420FFF749FAED498871084649
:103CB000FFF756F8EA49C8710B460822E94801683F
:103CC000E948FFF7EBF80A20FFF75AF94120E449E9
:103CD0000870542048704B20887001210846FEF778
:103CE0006FFCDF49C87002210120FEF769FCDC4946
:103CF000087103210120FEF763FCD94948710421B2
:103D00000120FEF75DFCD64988710846FFF728F8C8
:103D1000D349C8710B460822D2480168D24801E055
:103D20009DE15CE0FFF7BAF80A20FFF729F941208E
:103D3000CB490870492048704D208870012102202D
:103D4000FEF73EFCC649C87002210846FEF738FC63
:103D5000C349087103210220FEF732FCC0494871B3
:103D600004210220FEF72CFCBD4988710846FEF7AD
:103D7000F7FFBB49C8710B460822BA480168BA4828
:103D8000FFF78CF80A20FFF7FBF85420B4490870BD
:103D900044204870432088700120FFF7CDFBB049D4
:103DA000C8700220FFF7C8FBAD4908710320FFF778
:103DB000C3FBAB4948710420FFF7BEFBA8498871DB
:103DC0000846FEF7CDFFA649C8710B460822A54854
:103DD0000168A548FFF762F80A20FFF7D1F8A34869
:103DE000807B522830D1A148C07B50282CD19F48DD
:103DF000007C562828D1FFF791F952209849087085
:103E000050204870562088700120FFF797F9944998
:103E1000C8700220FFF792F9914908710320FFF75B
:103E20008DF98F4948710420FFF788F98C49887112
:103E30000846FEF795FF8A49C8710B460822894853
:103E400001688948FFF72AF88848807B412832D1E9
:103E50008648C07B4F282ED18448007C43282AD135
:103E600041207F4908704F2048704320887001210D
:103E70000020FEF7A5FB7A49C87002210020FEF75A
:103E80009FFB7749087103210020FEF799FB7449D5
:103E9000487104210020FEF793FB714988710846A0
:103EA000FEF75EFF6E49C8710B4608226D48016837
:103EB0006D48FEF7F3FF6D48807B412832D16B4897
:103EC000C07B54282ED16948007C4B282AD1412040
:103ED00063490870542048704B20887001210846BF
:103EE000FEF76EFB5E49C87002210120FEF768FBF9
:103EF0005B49087103210120FEF762FB58494871B4
:103F000004210120FEF75CFB554988710846FEF745
:103F100027FF5349C8710B4608225248016852488E
:103F2000FEF7BCFF5148807B412832D14F48C07B0F
:103F300049282ED14D48007C4D282AD1412048499E
:103F40000870492048704D20887001210220FEF73A
:103F500037FB4349C87002210846FEF731FB404950
:103F6000087103210220FEF72BFB3D494871042113
:103F70000220FEF725FB3A4988710846FEF7F0FE5D
:103F80003749C8710B460822364801683648FEF7A3
:103F900085FF3648807B54282ED13448C07B442886
:103FA0002AD13248007C432826D154202C4908705D
:103FB00044204870432088700120FFF7BDFA28494B
:103FC000C8700220FFF7B8FA254908710320FFF7EF
:103FD000B3FA234948710420FFF7AEFA20498871EB
:103FE0000846FEF7BDFE1E49C8710B4608221D4853
:103FF00001681D48FEF752FF1C48807B52282ED1D5
:104000001A48C07B53282AD11848007C502826D152
:1040100052201349087053204870502088700120A6
:10402000FEF7BEFC0E49C8700220FEF7B9FC0C4931
:1040300008710320FEF7B4FC094948710420FEF71B
:10404000AFFC074988710846FEF78AFE0449C8712B
:104050000B460822034801680348FEF71FFF38BDDE
:104060007C0000205C00002000640040EC00002088
:1040700000BFFEE702E008C8121F08C1002AFAD1FB
:1040800070477047002001E001C1121F002AFBD1D8
:104090007047000008B54FF4E010FCF7C7FF2D484B
:1040A000FDF728FC2B4800682B490860FDF7B6FD9A
:1040B000FEF726FFFFF708FAFFF75EFBFEF7A8FF03
:1040C000FEF75EFEFEF796FDFFF748F9FFF724FBCB
:1040D000FEF740FAFEF7A6F94FF4FA60FEF728FF64
:1040E00000200346024601460090FEF72BFD00200B
:1040F00003460246014600900120FEF723FD002002
:1041000003460246014600900220FEF71BFD0020F8
:1041100003460246014600900320FEF713FD0020EF
:1041200003460246014600900420FEF70BFD0020E6
:1041300003460246014600900520FEF703FD0020DD
:1041400003460246014600900620FEF7FBFC00BF36
:10415000FEE70000D800002024000020000000003E
:10416000000001000001000000000100000101004A
:10417000000000010001000001000000000101003A
:10418000000101000000000000000000000000002D
:10419000000000010100000000000001010000011A
:1041A000000001000100000000010000010000010A
:1041B000010000010000000000000000FDFFFFFF03
:1041C000FEFFFFFFFFFFFFFFFEFFFFFFFFFFFFFF01
:1041D00000000000FFFFFFFF0000000001000000E2
:1041E00000000000010000000200000001000000CB
:1041F0000200000003000000184200080000002038
:10420000D800000074400008F0420008D8000020E8
:104210008010000084400008000000000000000042
:10422000000000000000000000000000000000008E
:104230000000430203040506070800000000000018
:10424000000000000000000000000000000000006E
:10425000000000000000FFFFFFFF00000000000062
:10426000000000000000000000000000000000004E
:1042700000000000210100002201000023010000D5
:1042800024010000250100002601000000000000BC
:10429000000000000000000000000000000000001E
:1042A000000000000000000000000000000000000E
:1042B00000000000000000000000000000000000FE
:1042C00000000000000000000000000001020304E4
:1042D00001020304060708090204060800A24A04B2
:1042E00000000000000000000102030406070809A6
:04000005080000ED02
:00000001FF
